:04000000803116280D
:100008007E14803140017F08F0000B1F11284E013B
:1000180017180D1C11288131A42170084001FF0018
:100028007E10090080311828F601F7017E10400182
:1000380080311E2881317F21803181316B218031CF
:10004800813139218031F401F50140010C0C890C12
:1000580001397706031932298131752180317706F4
:100068000319322940010C1DE62876080319E628F1
:10007800813198218031D428400118159815181617
:10008800981628294001181598151816981603303F
:10009800242941010C1C53284001181555284001FA
:1000A800181141010C08F3000130F336890B592867
:1000B800731C61284001981563284001981141017B
:1000C8000C08F3000230F336890B6728731C6F287D
:1000D8004001181671284001181241010C08F3005C
:1000E8000330F336890B7528731C7D284001981658
:1000F8007F28400198120430242941010C08F3009C
:100108000430F336890B8528731C8D284001181597
:100118008F284001181141010C08F3000530F3360F
:10012800890B9328731C9B28400198159D28400132
:10013800981141010C08F3000630F336890BA12809
:10014800731CA92840011816AB2840011812410158
:100158000C08F3000730F336890BAF28731CB72857
:1001680040019816B9284001981205302429410108
:100178000D1CC12840011815C32840011811410160
:100188000D08F3000130F336890BC728731CCF28FC
:1001980040019815D1284001981118129812282961
:1001A8007608013A03194028033A03194628013A08
:1001B80003194D28073A03198128013A0319BB2866
:1001C8002D292D290C1D2A297608031D2A292930B5
:1001D800F300F30BED28000040018E190E191A29BF
:1001E800003081319121803181319E218031720826
:1001F800F5007108F4007508803AF3008130730245
:10020800031D0829CC30740203180C2940019610EC
:100218007508803AF30081307302031D1529EB300D
:100228007402031C1D29400196141D298E1D0E1DE4
:100238002029F601F60A2D298E190E1D28290230CB
:10024800F3007308F6002D29F6012D2981316B2161
:100258008031003040010C190130F70040010C19C1
:10026800292881316B218031292841019401950188
:1002780096019901970198019A019B019C019D01A2
:100288009E0142018D018E018F0190019101920121
:1002980093018530410193004E010D101714080099
:1002A800400197019601FF3098007E01B901C40111
:1002B800CF01F930B800FF30C300C330CE00FF30A3
:1002C80040019200FF309300FD309100080040018A
:1002D80018119811181298121315931513169316CE
:1002E80008001430F100F10B7729000040010C0CD4
:1002F800890C0139080081315421813181318821EB
:100308008131813139210800623051018D008F011E
:1003180091019301900192010800F10071084101D7
:100328009E00931713140800400113119311131220
:100338009312080041010D08F2000C08F1000800B2
:060348004E010D1008003B
:020000040001F9
:0A000E00EC3FFF3B9F3FFF3FFF3F29
:00000001FF
